{
  "_format": "hh-sol-artifact-1",
  "contractName": "SupplyChain",
  "sourceName": "contracts/SupplyChain.sol",
  "abi": [
    {
      "inputs": [],
      "stateMutability": "nonpayable",
      "type": "constructor"
    },
    {
      "anonymous": false,
      "inputs": [
        {
          "indexed": true,
          "internalType": "address",
          "name": "account",
          "type": "address"
        }
      ],
      "name": "DistributorAdded",
      "type": "event"
    },
    {
      "anonymous": false,
      "inputs": [
        {
          "indexed": true,
          "internalType": "address",
          "name": "account",
          "type": "address"
        }
      ],
      "name": "DistributorRemoved",
      "type": "event"
    },
    {
      "anonymous": false,
      "inputs": [
        {
          "indexed": false,
          "internalType": "uint256",
          "name": "upc",
          "type": "uint256"
        },
        {
          "indexed": false,
          "internalType": "uint256",
          "name": "quantity",
          "type": "uint256"
        }
      ],
      "name": "ProducedByDistributor",
      "type": "event"
    },
    {
      "anonymous": false,
      "inputs": [
        {
          "indexed": false,
          "internalType": "uint256",
          "name": "upc",
          "type": "uint256"
        },
        {
          "indexed": false,
          "internalType": "uint256",
          "name": "quantity",
          "type": "uint256"
        }
      ],
      "name": "PurchasedByRetailer",
      "type": "event"
    },
    {
      "anonymous": false,
      "inputs": [
        {
          "indexed": false,
          "internalType": "uint256",
          "name": "upc",
          "type": "uint256"
        }
      ],
      "name": "ReceivedByRetailer",
      "type": "event"
    },
    {
      "anonymous": false,
      "inputs": [
        {
          "indexed": true,
          "internalType": "address",
          "name": "account",
          "type": "address"
        }
      ],
      "name": "RetailerAdded",
      "type": "event"
    },
    {
      "anonymous": false,
      "inputs": [
        {
          "indexed": true,
          "internalType": "address",
          "name": "account",
          "type": "address"
        }
      ],
      "name": "RetailerRemoved",
      "type": "event"
    },
    {
      "anonymous": false,
      "inputs": [
        {
          "indexed": false,
          "internalType": "uint256",
          "name": "upc",
          "type": "uint256"
        },
        {
          "indexed": false,
          "internalType": "uint256",
          "name": "price",
          "type": "uint256"
        }
      ],
      "name": "SellByDistributor",
      "type": "event"
    },
    {
      "anonymous": false,
      "inputs": [
        {
          "indexed": false,
          "internalType": "uint256",
          "name": "upc",
          "type": "uint256"
        },
        {
          "indexed": false,
          "internalType": "uint256",
          "name": "quatity",
          "type": "uint256"
        }
      ],
      "name": "ShippedByDistributor",
      "type": "event"
    },
    {
      "anonymous": false,
      "inputs": [
        {
          "indexed": true,
          "internalType": "address",
          "name": "oldOwner",
          "type": "address"
        },
        {
          "indexed": true,
          "internalType": "address",
          "name": "newOwner",
          "type": "address"
        }
      ],
      "name": "TransferOwnership",
      "type": "event"
    },
    {
      "inputs": [
        {
          "internalType": "uint256",
          "name": "_upc",
          "type": "uint256"
        },
        {
          "internalType": "string",
          "name": "productName",
          "type": "string"
        },
        {
          "internalType": "string",
          "name": "productDescription",
          "type": "string"
        },
        {
          "internalType": "uint256",
          "name": "quantity",
          "type": "uint256"
        },
        {
          "internalType": "uint256",
          "name": "purchasePrice",
          "type": "uint256"
        }
      ],
      "name": "ProduceDistributor",
      "outputs": [],
      "stateMutability": "nonpayable",
      "type": "function"
    },
    {
      "inputs": [
        {
          "internalType": "uint256",
          "name": "_upc",
          "type": "uint256"
        }
      ],
      "name": "PurchaseRetailer",
      "outputs": [],
      "stateMutability": "payable",
      "type": "function"
    },
    {
      "inputs": [
        {
          "internalType": "uint256",
          "name": "_upc",
          "type": "uint256"
        }
      ],
      "name": "ReceivedRetailer",
      "outputs": [],
      "stateMutability": "nonpayable",
      "type": "function"
    },
    {
      "inputs": [
        {
          "internalType": "uint256",
          "name": "_upc",
          "type": "uint256"
        },
        {
          "internalType": "uint256",
          "name": "_price",
          "type": "uint256"
        },
        {
          "internalType": "uint256",
          "name": "quantity",
          "type": "uint256"
        }
      ],
      "name": "SellDistributor",
      "outputs": [],
      "stateMutability": "nonpayable",
      "type": "function"
    },
    {
      "inputs": [
        {
          "internalType": "uint256",
          "name": "_upc",
          "type": "uint256"
        }
      ],
      "name": "ShippedDistributor",
      "outputs": [],
      "stateMutability": "nonpayable",
      "type": "function"
    },
    {
      "inputs": [
        {
          "internalType": "address",
          "name": "account",
          "type": "address"
        }
      ],
      "name": "addDistributor",
      "outputs": [],
      "stateMutability": "nonpayable",
      "type": "function"
    },
    {
      "inputs": [
        {
          "internalType": "address",
          "name": "account",
          "type": "address"
        }
      ],
      "name": "addRetailer",
      "outputs": [],
      "stateMutability": "nonpayable",
      "type": "function"
    },
    {
      "inputs": [
        {
          "internalType": "uint256",
          "name": "_upc",
          "type": "uint256"
        }
      ],
      "name": "fetchItems",
      "outputs": [
        {
          "internalType": "uint256",
          "name": "universalpc",
          "type": "uint256"
        },
        {
          "internalType": "address",
          "name": "ownerID",
          "type": "address"
        },
        {
          "internalType": "string",
          "name": "productName",
          "type": "string"
        },
        {
          "internalType": "string",
          "name": "ProductDescription",
          "type": "string"
        },
        {
          "internalType": "address",
          "name": "DistributorId",
          "type": "address"
        },
        {
          "internalType": "uint256",
          "name": "quantity",
          "type": "uint256"
        },
        {
          "internalType": "uint256",
          "name": "purchasePrice",
          "type": "uint256"
        },
        {
          "internalType": "uint256",
          "name": "productDate",
          "type": "uint256"
        },
        {
          "internalType": "enum SupplyChain.State",
          "name": "itemState",
          "type": "uint8"
        }
      ],
      "stateMutability": "view",
      "type": "function"
    },
    {
      "inputs": [
        {
          "internalType": "uint256",
          "name": "_upc",
          "type": "uint256"
        }
      ],
      "name": "fetchitemSold",
      "outputs": [
        {
          "internalType": "uint256",
          "name": "unipc",
          "type": "uint256"
        },
        {
          "internalType": "address",
          "name": "ownerID",
          "type": "address"
        },
        {
          "internalType": "string",
          "name": "productName",
          "type": "string"
        },
        {
          "internalType": "uint256",
          "name": "quantity",
          "type": "uint256"
        },
        {
          "internalType": "uint256",
          "name": "Price",
          "type": "uint256"
        },
        {
          "internalType": "uint256",
          "name": "productDate",
          "type": "uint256"
        },
        {
          "internalType": "enum SupplyChain.State",
          "name": "itemState",
          "type": "uint8"
        }
      ],
      "stateMutability": "view",
      "type": "function"
    },
    {
      "inputs": [
        {
          "internalType": "address",
          "name": "account",
          "type": "address"
        }
      ],
      "name": "isDistributor",
      "outputs": [
        {
          "internalType": "bool",
          "name": "",
          "type": "bool"
        }
      ],
      "stateMutability": "view",
      "type": "function"
    },
    {
      "inputs": [],
      "name": "isOwner",
      "outputs": [
        {
          "internalType": "bool",
          "name": "",
          "type": "bool"
        }
      ],
      "stateMutability": "view",
      "type": "function"
    },
    {
      "inputs": [
        {
          "internalType": "address",
          "name": "account",
          "type": "address"
        }
      ],
      "name": "isRetailer",
      "outputs": [
        {
          "internalType": "bool",
          "name": "",
          "type": "bool"
        }
      ],
      "stateMutability": "view",
      "type": "function"
    },
    {
      "inputs": [],
      "name": "ownerLookup",
      "outputs": [
        {
          "internalType": "address",
          "name": "",
          "type": "address"
        }
      ],
      "stateMutability": "view",
      "type": "function"
    },
    {
      "inputs": [],
      "name": "renonunceOwnership",
      "outputs": [],
      "stateMutability": "nonpayable",
      "type": "function"
    },
    {
      "inputs": [
        {
          "internalType": "address",
          "name": "account",
          "type": "address"
        }
      ],
      "name": "renounceDistributor",
      "outputs": [],
      "stateMutability": "nonpayable",
      "type": "function"
    },
    {
      "inputs": [
        {
          "internalType": "address",
          "name": "account",
          "type": "address"
        }
      ],
      "name": "renounceRetailer",
      "outputs": [],
      "stateMutability": "nonpayable",
      "type": "function"
    },
    {
      "inputs": [
        {
          "internalType": "address",
          "name": "newOwner",
          "type": "address"
        }
      ],
      "name": "transferOwnership",
      "outputs": [],
      "stateMutability": "nonpayable",
      "type": "function"
    }
  ],
  "bytecode": "0x60806040523480156200001157600080fd5b50336000806101000a81548173ffffffffffffffffffffffffffffffffffffffff021916908373ffffffffffffffffffffffffffffffffffffffff16021790555060008054906101000a900473ffffffffffffffffffffffffffffffffffffffff1673ffffffffffffffffffffffffffffffffffffffff16600073ffffffffffffffffffffffffffffffffffffffff167f5c486528ec3e3f0ea91181cff8116f02bfa350e03b8b6f12e00765adbb5af85c60405160405180910390a3620000de336200013660201b60201c565b620000ef336200019760201b60201c565b33600360006101000a81548173ffffffffffffffffffffffffffffffffffffffff021916908373ffffffffffffffffffffffffffffffffffffffff16021790555062000341565b62000151816001620001f860201b6200174a1790919060201c565b8073ffffffffffffffffffffffffffffffffffffffff167fddbf200aa634dc3fb81cfd68583dd1040d1c751d335e1d86b631bde3e977fea860405160405180910390a250565b620001b2816002620001f860201b6200174a1790919060201c565b8073ffffffffffffffffffffffffffffffffffffffff167f71ae26cad02663e3d92efd6ec56031a80d74a20c0ab4183faa8bf262261c9baa60405160405180910390a250565b600073ffffffffffffffffffffffffffffffffffffffff168173ffffffffffffffffffffffffffffffffffffffff1614156200023357600080fd5b620002458282620002ae60201b60201c565b156200025057600080fd5b60018260000160008373ffffffffffffffffffffffffffffffffffffffff1673ffffffffffffffffffffffffffffffffffffffff16815260200190815260200160002060006101000a81548160ff0219169083151502179055505050565b60008073ffffffffffffffffffffffffffffffffffffffff168273ffffffffffffffffffffffffffffffffffffffff161415620002ea57600080fd5b8260000160008373ffffffffffffffffffffffffffffffffffffffff1673ffffffffffffffffffffffffffffffffffffffff16815260200190815260200160002060009054906101000a900460ff16905092915050565b61242b80620003516000396000f3fe6080604052600436106100fe5760003560e01c80638ec4f50511610095578063bbb67db911610064578063bbb67db914610330578063ca43187014610359578063d6a9156014610382578063e02e64ea146103ab578063f2fde38b146103d6576100fe565b80638ec4f5051461025a5780638f0c86fa146102835780638f32d59b146102c0578063bb804492146102eb576100fe565b80635da09b88116100d15780635da09b88146101885780635e064421146101c55780635e8a84fb146101ee5780637250e22414610231576100fe565b80630ca7143214610103578063136425491461012c5780631a8d969814610155578063376e04e51461016c575b600080fd5b34801561010f57600080fd5b5061012a60048036038101906101259190611e0c565b6103ff565b005b34801561013857600080fd5b50610153600480360381019061014e9190611e5e565b61041d565b005b34801561016157600080fd5b5061016a61075d565b005b61018660048036038101906101819190611e35565b61082c565b005b34801561019457600080fd5b506101af60048036038101906101aa9190611e0c565b610adc565b6040516101bc9190611fe4565b60405180910390f35b3480156101d157600080fd5b506101ec60048036038101906101e79190611e35565b610af9565b005b3480156101fa57600080fd5b5061021560048036038101906102109190611e35565b610cd4565b60405161022897969594939291906120b5565b60405180910390f35b34801561023d57600080fd5b5061025860048036038101906102539190611e0c565b610ed5565b005b34801561026657600080fd5b50610281600480360381019061027c9190611e0c565b610ef3565b005b34801561028f57600080fd5b506102aa60048036038101906102a59190611e0c565b610f11565b6040516102b79190611fe4565b60405180910390f35b3480156102cc57600080fd5b506102d5610f2e565b6040516102e29190611fe4565b60405180910390f35b3480156102f757600080fd5b50610312600480360381019061030d9190611e35565b610f85565b6040516103279998979695949392919061201a565b60405180910390f35b34801561033c57600080fd5b5061035760048036038101906103529190611e0c565b611282565b005b34801561036557600080fd5b50610380600480360381019061037b9190611e35565b6112a0565b005b34801561038e57600080fd5b506103a960048036038101906103a49190611f05565b6113c1565b005b3480156103b757600080fd5b506103c0611704565b6040516103cd9190611fc9565b60405180910390f35b3480156103e257600080fd5b506103fd60048036038101906103f89190611e0c565b61172d565b005b61040833610adc565b61041157600080fd5b61041a816117f6565b50565b61042633610f11565b61042f57600080fd5b84600015156007600083815260200190815260200160002060009054906101000a900460ff1615151461046157600080fd5b610469611b9c565b8681600001818152505033816020019073ffffffffffffffffffffffffffffffffffffffff16908173ffffffffffffffffffffffffffffffffffffffff168152505033816080019073ffffffffffffffffffffffffffffffffffffffff16908173ffffffffffffffffffffffffffffffffffffffff1681525050858160400181905250848160600181905250838160a0018181525050828160c0018181525050428160e001818152505060008161010001906004811115610553577f4e487b7100000000000000000000000000000000000000000000000000000000600052602160045260246000fd5b9081600481111561058d577f4e487b7100000000000000000000000000000000000000000000000000000000600052602160045260246000fd5b8152505060016007600089815260200190815260200160002060006101000a81548160ff02191690831515021790555080600560008981526020019081526020016000206000820151816000015560208201518160010160006101000a81548173ffffffffffffffffffffffffffffffffffffffff021916908373ffffffffffffffffffffffffffffffffffffffff160217905550604082015181600201908051906020019061063e929190611c4c565b50606082015181600301908051906020019061065b929190611c4c565b5060808201518160040160006101000a81548173ffffffffffffffffffffffffffffffffffffffff021916908373ffffffffffffffffffffffffffffffffffffffff16021790555060a0820151816005015560c0820151816006015560e082015181600701556101008201518160080160006101000a81548160ff02191690836004811115610713577f4e487b7100000000000000000000000000000000000000000000000000000000600052602160045260246000fd5b02179055509050507f11f5fdadcb2121e92cdbd11e820b5d96273d20ed5c28805e66ac9a5663c57cd7878560405161074c92919061212b565b60405180910390a150505050505050565b610765610f2e565b61076e57600080fd5b600073ffffffffffffffffffffffffffffffffffffffff1660008054906101000a900473ffffffffffffffffffffffffffffffffffffffff1673ffffffffffffffffffffffffffffffffffffffff167f5c486528ec3e3f0ea91181cff8116f02bfa350e03b8b6f12e00765adbb5af85c60405160405180910390a360008060006101000a81548173ffffffffffffffffffffffffffffffffffffffff021916908373ffffffffffffffffffffffffffffffffffffffff160217905550565b61083533610adc565b61083e57600080fd5b60066000828152602001908152602001600020600401548034101561086257600080fd5b81336000600660008481526020019081526020016000206004015490506000813461088d91906121d1565b90508273ffffffffffffffffffffffffffffffffffffffff166108fc829081150290604051600060405180830381858888f193505050501580156108d5573d6000803e3d6000fd5b5060006109176005600089815260200190815260200160002060010160009054906101000a900473ffffffffffffffffffffffffffffffffffffffff16611850565b90508073ffffffffffffffffffffffffffffffffffffffff166108fc600660008a8152602001908152602001600020600401549081150290604051600060405180830381858888f19350505050158015610975573d6000803e3d6000fd5b50336006600089815260200190815260200160002060010160006101000a81548173ffffffffffffffffffffffffffffffffffffffff021916908373ffffffffffffffffffffffffffffffffffffffff16021790555060026006600089815260200190815260200160002060060160006101000a81548160ff02191690836004811115610a2b577f4e487b7100000000000000000000000000000000000000000000000000000000600052602160045260246000fd5b021790555060066000888152602001908152602001600020600301546005600089815260200190815260200160002060050154610a6891906121d1565b60056000898152602001908152602001600020600501819055507f89beeb15c9705e3514f2c2455de55d5d580be6925aa190c577a49236ed547db4600454600660008a815260200190815260200160002060040154604051610acb92919061212b565b60405180910390a150505050505050565b6000610af282600261185a90919063ffffffff16565b9050919050565b610b0233610f11565b610b0b57600080fd5b8060026004811115610b46577f4e487b7100000000000000000000000000000000000000000000000000000000600052602160045260246000fd5b6006600083815260200190815260200160002060060160009054906101000a900460ff166004811115610ba2577f4e487b7100000000000000000000000000000000000000000000000000000000600052602160045260246000fd5b14610bac57600080fd5b6005600083815260200190815260200160002060040160009054906101000a900473ffffffffffffffffffffffffffffffffffffffff168073ffffffffffffffffffffffffffffffffffffffff163373ffffffffffffffffffffffffffffffffffffffff1614610c1b57600080fd5b60036006600085815260200190815260200160002060060160006101000a81548160ff02191690836004811115610c7b577f4e487b7100000000000000000000000000000000000000000000000000000000600052602160045260246000fd5b02179055507fe40b6fd557c7f0c70ffe892d9d5540c17543319a51508cc3b35632a234adaff8836006600086815260200190815260200160002060030154604051610cc792919061212b565b60405180910390a1505050565b60008060606000806000806000600660008a81526020019081526020016000206040518060e0016040529081600082015481526020016001820160009054906101000a900473ffffffffffffffffffffffffffffffffffffffff1673ffffffffffffffffffffffffffffffffffffffff1673ffffffffffffffffffffffffffffffffffffffff168152602001600282018054610d6f906122b4565b80601f0160208091040260200160405190810160405280929190818152602001828054610d9b906122b4565b8015610de85780601f10610dbd57610100808354040283529160200191610de8565b820191906000526020600020905b815481529060010190602001808311610dcb57829003601f168201915b505050505081526020016003820154815260200160048201548152602001600582015481526020016006820160009054906101000a900460ff166004811115610e5a577f4e487b7100000000000000000000000000000000000000000000000000000000600052602160045260246000fd5b6004811115610e92577f4e487b7100000000000000000000000000000000000000000000000000000000600052602160045260246000fd5b815250509050806000015181602001518260400151836060015184608001518560a001518660c00151975097509750975097509750975050919395979092949650565b610ede33610f11565b610ee757600080fd5b610ef0816118ec565b50565b610efc33610adc565b610f0557600080fd5b610f0e81611946565b50565b6000610f2782600161185a90919063ffffffff16565b9050919050565b60008060009054906101000a900473ffffffffffffffffffffffffffffffffffffffff1673ffffffffffffffffffffffffffffffffffffffff163373ffffffffffffffffffffffffffffffffffffffff1614905090565b600080606080600080600080600080600560008c815260200190815260200160002060405180610120016040529081600082015481526020016001820160009054906101000a900473ffffffffffffffffffffffffffffffffffffffff1673ffffffffffffffffffffffffffffffffffffffff1673ffffffffffffffffffffffffffffffffffffffff168152602001600282018054611023906122b4565b80601f016020809104026020016040519081016040528092919081815260200182805461104f906122b4565b801561109c5780601f106110715761010080835404028352916020019161109c565b820191906000526020600020905b81548152906001019060200180831161107f57829003601f168201915b505050505081526020016003820180546110b5906122b4565b80601f01602080910402602001604051908101604052809291908181526020018280546110e1906122b4565b801561112e5780601f106111035761010080835404028352916020019161112e565b820191906000526020600020905b81548152906001019060200180831161111157829003601f168201915b505050505081526020016004820160009054906101000a900473ffffffffffffffffffffffffffffffffffffffff1673ffffffffffffffffffffffffffffffffffffffff1673ffffffffffffffffffffffffffffffffffffffff1681526020016005820154815260200160068201548152602001600782015481526020016008820160009054906101000a900460ff1660048111156111f6577f4e487b7100000000000000000000000000000000000000000000000000000000600052602160045260246000fd5b600481111561122e577f4e487b7100000000000000000000000000000000000000000000000000000000600052602160045260246000fd5b815250509050806000015181602001518260400151836060015184608001518560a001518660c001518760e00151886101000151995099509950995099509950995099509950509193959799909294969850565b61128b33610f11565b61129457600080fd5b61129d816119a0565b50565b6112a933610adc565b6112b257600080fd5b6006600082815260200190815260200160002060010160009054906101000a900473ffffffffffffffffffffffffffffffffffffffff168073ffffffffffffffffffffffffffffffffffffffff163373ffffffffffffffffffffffffffffffffffffffff161461132157600080fd5b60046006600084815260200190815260200160002060060160006101000a81548160ff02191690836004811115611381577f4e487b7100000000000000000000000000000000000000000000000000000000600052602160045260246000fd5b02179055507f322f34e90f2269750b3e28178631d975cc678db36f21098fe548b7f755ce0bd0826040516113b59190611fff565b60405180910390a15050565b6113ca33610f11565b6113d357600080fd5b6005600084815260200190815260200160002060040160009054906101000a900473ffffffffffffffffffffffffffffffffffffffff168073ffffffffffffffffffffffffffffffffffffffff163373ffffffffffffffffffffffffffffffffffffffff161461144257600080fd5b61144a611cd2565b8481600001818152505060018160c001906004811115611493577f4e487b7100000000000000000000000000000000000000000000000000000000600052602160045260246000fd5b908160048111156114cd577f4e487b7100000000000000000000000000000000000000000000000000000000600052602160045260246000fd5b815250506005600086815260200190815260200160002060010160009054906101000a900473ffffffffffffffffffffffffffffffffffffffff16816020019073ffffffffffffffffffffffffffffffffffffffff16908173ffffffffffffffffffffffffffffffffffffffff168152505083816080018181525050428160a0018181525050600560008681526020019081526020016000206002018054611574906122b4565b80601f01602080910402602001604051908101604052809291908181526020018280546115a0906122b4565b80156115ed5780601f106115c2576101008083540402835291602001916115ed565b820191906000526020600020905b8154815290600101906020018083116115d057829003601f168201915b505050505081604001819052508281606001818152505080600660008781526020019081526020016000206000820151816000015560208201518160010160006101000a81548173ffffffffffffffffffffffffffffffffffffffff021916908373ffffffffffffffffffffffffffffffffffffffff1602179055506040820151816002019080519060200190611685929190611c4c565b50606082015181600301556080820151816004015560a0820151816005015560c08201518160060160006101000a81548160ff021916908360048111156116f5577f4e487b7100000000000000000000000000000000000000000000000000000000600052602160045260246000fd5b02179055509050505050505050565b60008060009054906101000a900473ffffffffffffffffffffffffffffffffffffffff16905090565b611735610f2e565b61173e57600080fd5b611747816119fa565b50565b600073ffffffffffffffffffffffffffffffffffffffff168173ffffffffffffffffffffffffffffffffffffffff16141561178457600080fd5b61178e828261185a565b1561179857600080fd5b60018260000160008373ffffffffffffffffffffffffffffffffffffffff1673ffffffffffffffffffffffffffffffffffffffff16815260200190815260200160002060006101000a81548160ff0219169083151502179055505050565b61180a816002611af190919063ffffffff16565b8073ffffffffffffffffffffffffffffffffffffffff167fdb7176e79cffef81cb01767dd0447a0b24bb72ca9778d4b245581086b2a7e6db60405160405180910390a250565b6000819050919050565b60008073ffffffffffffffffffffffffffffffffffffffff168273ffffffffffffffffffffffffffffffffffffffff16141561189557600080fd5b8260000160008373ffffffffffffffffffffffffffffffffffffffff1673ffffffffffffffffffffffffffffffffffffffff16815260200190815260200160002060009054906101000a900460ff16905092915050565b61190081600161174a90919063ffffffff16565b8073ffffffffffffffffffffffffffffffffffffffff167fddbf200aa634dc3fb81cfd68583dd1040d1c751d335e1d86b631bde3e977fea860405160405180910390a250565b61195a81600261174a90919063ffffffff16565b8073ffffffffffffffffffffffffffffffffffffffff167f71ae26cad02663e3d92efd6ec56031a80d74a20c0ab4183faa8bf262261c9baa60405160405180910390a250565b6119b4816001611af190919063ffffffff16565b8073ffffffffffffffffffffffffffffffffffffffff167f126174f6cf49c81cdb4a9214c6b8f037bef55b4ec31e4fc776cea2a1c8a88d5960405160405180910390a250565b600073ffffffffffffffffffffffffffffffffffffffff168173ffffffffffffffffffffffffffffffffffffffff161415611a3457600080fd5b8073ffffffffffffffffffffffffffffffffffffffff1660008054906101000a900473ffffffffffffffffffffffffffffffffffffffff1673ffffffffffffffffffffffffffffffffffffffff167f5c486528ec3e3f0ea91181cff8116f02bfa350e03b8b6f12e00765adbb5af85c60405160405180910390a3806000806101000a81548173ffffffffffffffffffffffffffffffffffffffff021916908373ffffffffffffffffffffffffffffffffffffffff16021790555050565b600073ffffffffffffffffffffffffffffffffffffffff168173ffffffffffffffffffffffffffffffffffffffff161415611b2b57600080fd5b611b35828261185a565b611b3e57600080fd5b60008260000160008373ffffffffffffffffffffffffffffffffffffffff1673ffffffffffffffffffffffffffffffffffffffff16815260200190815260200160002060006101000a81548160ff0219169083151502179055505050565b60405180610120016040528060008152602001600073ffffffffffffffffffffffffffffffffffffffff1681526020016060815260200160608152602001600073ffffffffffffffffffffffffffffffffffffffff16815260200160008152602001600081526020016000815260200160006004811115611c46577f4e487b7100000000000000000000000000000000000000000000000000000000600052602160045260246000fd5b81525090565b828054611c58906122b4565b90600052602060002090601f016020900481019282611c7a5760008555611cc1565b82601f10611c9357805160ff1916838001178555611cc1565b82800160010185558215611cc1579182015b82811115611cc0578251825591602001919060010190611ca5565b5b509050611cce9190611d5d565b5090565b6040518060e0016040528060008152602001600073ffffffffffffffffffffffffffffffffffffffff1681526020016060815260200160008152602001600081526020016000815260200160006004811115611d57577f4e487b7100000000000000000000000000000000000000000000000000000000600052602160045260246000fd5b81525090565b5b80821115611d76576000816000905550600101611d5e565b5090565b6000611d8d611d8884612185565b612154565b905082815260208101848484011115611da557600080fd5b611db0848285612272565b509392505050565b600081359050611dc7816123c7565b92915050565b600082601f830112611dde57600080fd5b8135611dee848260208601611d7a565b91505092915050565b600081359050611e06816123de565b92915050565b600060208284031215611e1e57600080fd5b6000611e2c84828501611db8565b91505092915050565b600060208284031215611e4757600080fd5b6000611e5584828501611df7565b91505092915050565b600080600080600060a08688031215611e7657600080fd5b6000611e8488828901611df7565b955050602086013567ffffffffffffffff811115611ea157600080fd5b611ead88828901611dcd565b945050604086013567ffffffffffffffff811115611eca57600080fd5b611ed688828901611dcd565b9350506060611ee788828901611df7565b9250506080611ef888828901611df7565b9150509295509295909350565b600080600060608486031215611f1a57600080fd5b6000611f2886828701611df7565b9350506020611f3986828701611df7565b9250506040611f4a86828701611df7565b9150509250925092565b611f5d81612205565b82525050565b611f6c81612217565b82525050565b611f7b81612260565b82525050565b6000611f8c826121b5565b611f9681856121c0565b9350611fa6818560208601612281565b611faf816123a2565b840191505092915050565b611fc381612256565b82525050565b6000602082019050611fde6000830184611f54565b92915050565b6000602082019050611ff96000830184611f63565b92915050565b60006020820190506120146000830184611fba565b92915050565b600061012082019050612030600083018c611fba565b61203d602083018b611f54565b818103604083015261204f818a611f81565b905081810360608301526120638189611f81565b90506120726080830188611f54565b61207f60a0830187611fba565b61208c60c0830186611fba565b61209960e0830185611fba565b6120a7610100830184611f72565b9a9950505050505050505050565b600060e0820190506120ca600083018a611fba565b6120d76020830189611f54565b81810360408301526120e98188611f81565b90506120f86060830187611fba565b6121056080830186611fba565b61211260a0830185611fba565b61211f60c0830184611f72565b98975050505050505050565b60006040820190506121406000830185611fba565b61214d6020830184611fba565b9392505050565b6000604051905081810181811067ffffffffffffffff8211171561217b5761217a612373565b5b8060405250919050565b600067ffffffffffffffff8211156121a05761219f612373565b5b601f19601f8301169050602081019050919050565b600081519050919050565b600082825260208201905092915050565b60006121dc82612256565b91506121e783612256565b9250828210156121fa576121f96122e6565b5b828203905092915050565b600061221082612236565b9050919050565b60008115159050919050565b6000819050612231826123b3565b919050565b600073ffffffffffffffffffffffffffffffffffffffff82169050919050565b6000819050919050565b600061226b82612223565b9050919050565b82818337600083830152505050565b60005b8381101561229f578082015181840152602081019050612284565b838111156122ae576000848401525b50505050565b600060028204905060018216806122cc57607f821691505b602082108114156122e0576122df612344565b5b50919050565b7f4e487b7100000000000000000000000000000000000000000000000000000000600052601160045260246000fd5b7f4e487b7100000000000000000000000000000000000000000000000000000000600052602160045260246000fd5b7f4e487b7100000000000000000000000000000000000000000000000000000000600052602260045260246000fd5b7f4e487b7100000000000000000000000000000000000000000000000000000000600052604160045260246000fd5b6000601f19601f8301169050919050565b600581106123c4576123c3612315565b5b50565b6123d081612205565b81146123db57600080fd5b50565b6123e781612256565b81146123f257600080fd5b5056fea26469706673582212205a2be5451519bb42ddc5fd2702d6339ec568296b718bdcea40537a2759fc429e64736f6c63430008000033",
  "linkReferences": {},
  "deployedLinkReferences": {}
}